{
  "_format": "hh-sol-artifact-1",
  "contractName": "MyEpicNFT",
  "sourceName": "contracts/MyEpicNFT.sol",
  "abi": [
    {
      "inputs": [],
      "stateMutability": "nonpayable",
      "type": "constructor"
    },
    {
      "anonymous": false,
      "inputs": [
        {
          "indexed": true,
          "internalType": "address",
          "name": "owner",
          "type": "address"
        },
        {
          "indexed": true,
          "internalType": "address",
          "name": "approved",
          "type": "address"
        },
        {
          "indexed": true,
          "internalType": "uint256",
          "name": "tokenId",
          "type": "uint256"
        }
      ],
      "name": "Approval",
      "type": "event"
    },
    {
      "anonymous": false,
      "inputs": [
        {
          "indexed": true,
          "internalType": "address",
          "name": "owner",
          "type": "address"
        },
        {
          "indexed": true,
          "internalType": "address",
          "name": "operator",
          "type": "address"
        },
        {
          "indexed": false,
          "internalType": "bool",
          "name": "approved",
          "type": "bool"
        }
      ],
      "name": "ApprovalForAll",
      "type": "event"
    },
    {
      "anonymous": false,
      "inputs": [
        {
          "indexed": false,
          "internalType": "address",
          "name": "sender",
          "type": "address"
        },
        {
          "indexed": false,
          "internalType": "uint256",
          "name": "tokenId",
          "type": "uint256"
        }
      ],
      "name": "NewEpicNFTMinted",
      "type": "event"
    },
    {
      "anonymous": false,
      "inputs": [
        {
          "indexed": false,
          "internalType": "uint256",
          "name": "current",
          "type": "uint256"
        },
        {
          "indexed": false,
          "internalType": "uint256",
          "name": "total",
          "type": "uint256"
        }
      ],
      "name": "TotalNFTsMinted",
      "type": "event"
    },
    {
      "anonymous": false,
      "inputs": [
        {
          "indexed": true,
          "internalType": "address",
          "name": "from",
          "type": "address"
        },
        {
          "indexed": true,
          "internalType": "address",
          "name": "to",
          "type": "address"
        },
        {
          "indexed": true,
          "internalType": "uint256",
          "name": "tokenId",
          "type": "uint256"
        }
      ],
      "name": "Transfer",
      "type": "event"
    },
    {
      "inputs": [
        {
          "internalType": "address",
          "name": "to",
          "type": "address"
        },
        {
          "internalType": "uint256",
          "name": "tokenId",
          "type": "uint256"
        }
      ],
      "name": "approve",
      "outputs": [],
      "stateMutability": "nonpayable",
      "type": "function"
    },
    {
      "inputs": [
        {
          "internalType": "address",
          "name": "owner",
          "type": "address"
        }
      ],
      "name": "balanceOf",
      "outputs": [
        {
          "internalType": "uint256",
          "name": "",
          "type": "uint256"
        }
      ],
      "stateMutability": "view",
      "type": "function"
    },
    {
      "inputs": [
        {
          "internalType": "uint256",
          "name": "tokenId",
          "type": "uint256"
        }
      ],
      "name": "getApproved",
      "outputs": [
        {
          "internalType": "address",
          "name": "",
          "type": "address"
        }
      ],
      "stateMutability": "view",
      "type": "function"
    },
    {
      "inputs": [],
      "name": "getTotalNFTMinted",
      "outputs": [],
      "stateMutability": "nonpayable",
      "type": "function"
    },
    {
      "inputs": [
        {
          "internalType": "address",
          "name": "owner",
          "type": "address"
        },
        {
          "internalType": "address",
          "name": "operator",
          "type": "address"
        }
      ],
      "name": "isApprovedForAll",
      "outputs": [
        {
          "internalType": "bool",
          "name": "",
          "type": "bool"
        }
      ],
      "stateMutability": "view",
      "type": "function"
    },
    {
      "inputs": [],
      "name": "makeAnEpicNFT",
      "outputs": [],
      "stateMutability": "nonpayable",
      "type": "function"
    },
    {
      "inputs": [],
      "name": "name",
      "outputs": [
        {
          "internalType": "string",
          "name": "",
          "type": "string"
        }
      ],
      "stateMutability": "view",
      "type": "function"
    },
    {
      "inputs": [
        {
          "internalType": "uint256",
          "name": "tokenId",
          "type": "uint256"
        }
      ],
      "name": "ownerOf",
      "outputs": [
        {
          "internalType": "address",
          "name": "",
          "type": "address"
        }
      ],
      "stateMutability": "view",
      "type": "function"
    },
    {
      "inputs": [
        {
          "internalType": "uint256",
          "name": "tokenId",
          "type": "uint256"
        }
      ],
      "name": "pickRandomColor",
      "outputs": [
        {
          "internalType": "string",
          "name": "",
          "type": "string"
        }
      ],
      "stateMutability": "view",
      "type": "function"
    },
    {
      "inputs": [
        {
          "internalType": "uint256",
          "name": "tokenId",
          "type": "uint256"
        }
      ],
      "name": "pickRandomFirstWord",
      "outputs": [
        {
          "internalType": "string",
          "name": "",
          "type": "string"
        }
      ],
      "stateMutability": "view",
      "type": "function"
    },
    {
      "inputs": [
        {
          "internalType": "uint256",
          "name": "tokenId",
          "type": "uint256"
        }
      ],
      "name": "pickRandomSecondWord",
      "outputs": [
        {
          "internalType": "string",
          "name": "",
          "type": "string"
        }
      ],
      "stateMutability": "view",
      "type": "function"
    },
    {
      "inputs": [
        {
          "internalType": "uint256",
          "name": "tokenId",
          "type": "uint256"
        }
      ],
      "name": "pickRandomThirdWord",
      "outputs": [
        {
          "internalType": "string",
          "name": "",
          "type": "string"
        }
      ],
      "stateMutability": "view",
      "type": "function"
    },
    {
      "inputs": [
        {
          "internalType": "address",
          "name": "from",
          "type": "address"
        },
        {
          "internalType": "address",
          "name": "to",
          "type": "address"
        },
        {
          "internalType": "uint256",
          "name": "tokenId",
          "type": "uint256"
        }
      ],
      "name": "safeTransferFrom",
      "outputs": [],
      "stateMutability": "nonpayable",
      "type": "function"
    },
    {
      "inputs": [
        {
          "internalType": "address",
          "name": "from",
          "type": "address"
        },
        {
          "internalType": "address",
          "name": "to",
          "type": "address"
        },
        {
          "internalType": "uint256",
          "name": "tokenId",
          "type": "uint256"
        },
        {
          "internalType": "bytes",
          "name": "_data",
          "type": "bytes"
        }
      ],
      "name": "safeTransferFrom",
      "outputs": [],
      "stateMutability": "nonpayable",
      "type": "function"
    },
    {
      "inputs": [
        {
          "internalType": "address",
          "name": "operator",
          "type": "address"
        },
        {
          "internalType": "bool",
          "name": "approved",
          "type": "bool"
        }
      ],
      "name": "setApprovalForAll",
      "outputs": [],
      "stateMutability": "nonpayable",
      "type": "function"
    },
    {
      "inputs": [
        {
          "internalType": "bytes4",
          "name": "interfaceId",
          "type": "bytes4"
        }
      ],
      "name": "supportsInterface",
      "outputs": [
        {
          "internalType": "bool",
          "name": "",
          "type": "bool"
        }
      ],
      "stateMutability": "view",
      "type": "function"
    },
    {
      "inputs": [],
      "name": "symbol",
      "outputs": [
        {
          "internalType": "string",
          "name": "",
          "type": "string"
        }
      ],
      "stateMutability": "view",
      "type": "function"
    },
    {
      "inputs": [
        {
          "internalType": "uint256",
          "name": "tokenId",
          "type": "uint256"
        }
      ],
      "name": "tokenURI",
      "outputs": [
        {
          "internalType": "string",
          "name": "",
          "type": "string"
        }
      ],
      "stateMutability": "view",
      "type": "function"
    },
    {
      "inputs": [
        {
          "internalType": "address",
          "name": "from",
          "type": "address"
        },
        {
          "internalType": "address",
          "name": "to",
          "type": "address"
        },
        {
          "internalType": "uint256",
          "name": "tokenId",
          "type": "uint256"
        }
      ],
      "name": "transferFrom",
      "outputs": [],
      "stateMutability": "nonpayable",
      "type": "function"
    }
  ],
  "bytecode": "0x6080604052602a60085560405180610100016040528060d38152602001620050a560d39139600990805190602001906200003b92919062000fcf565b506040518060800160405280605681526020016200517860569139600a90805190602001906200006d92919062000fcf565b506040518061024001604052806040518060400160405280600581526020017f50697a7a6100000000000000000000000000000000000000000000000000000081525081526020016040518060400160405280600681526020017f537175617265000000000000000000000000000000000000000000000000000081525081526020016040518060400160405280600781526020017f426164646173730000000000000000000000000000000000000000000000000081525081526020016040518060400160405280600481526020017f536578790000000000000000000000000000000000000000000000000000000081525081526020016040518060400160405280600781526020017f4f6276696f75730000000000000000000000000000000000000000000000000081525081526020016040518060400160405280600481526020017f426f73730000000000000000000000000000000000000000000000000000000081525081526020016040518060400160405280600881526020017f53616e647769636800000000000000000000000000000000000000000000000081525081526020016040518060400160405280600681526020017f506f7461746f000000000000000000000000000000000000000000000000000081525081526020016040518060400160405280600381526020017f466174000000000000000000000000000000000000000000000000000000000081525081526020016040518060400160405280600581526020017f59756d6d7900000000000000000000000000000000000000000000000000000081525081526020016040518060400160405280600581526020017f536173737900000000000000000000000000000000000000000000000000000081525081526020016040518060400160405280600581526020017f446972747900000000000000000000000000000000000000000000000000000081525081526020016040518060400160405280600481526020017f536869700000000000000000000000000000000000000000000000000000000081525081526020016040518060400160405280600881526020017f4e6f7465626f6f6b00000000000000000000000000000000000000000000000081525081526020016040518060400160405280600781526020017f4d697373696c650000000000000000000000000000000000000000000000000081525081526020016040518060400160405280600981526020017f47616c616374696361000000000000000000000000000000000000000000000081525081526020016040518060400160405280600681526020017f506163696e6f000000000000000000000000000000000000000000000000000081525081526020016040518060400160405280600581526020017f43726f7373000000000000000000000000000000000000000000000000000000815250815250600b906012620004b092919062001060565b506040518061020001604052806040518060400160405280600681526020017f4d7564706965000000000000000000000000000000000000000000000000000081525081526020016040518060400160405280600781526020017f43757063616b650000000000000000000000000000000000000000000000000081525081526020016040518060400160405280600781526020017f4772616e646d610000000000000000000000000000000000000000000000000081525081526020016040518060400160405280600581526020017f537570657200000000000000000000000000000000000000000000000000000081525081526020016040518060400160405280600781526020017f53757072656d650000000000000000000000000000000000000000000000000081525081526020016040518060400160405280600981526020017f426f6f6d6572616e67000000000000000000000000000000000000000000000081525081526020016040518060400160405280600681526020017f566f72746578000000000000000000000000000000000000000000000000000081525081526020016040518060400160405280600481526020017f54696d650000000000000000000000000000000000000000000000000000000081525081526020016040518060400160405280600781526020017f546f726e61646f0000000000000000000000000000000000000000000000000081525081526020016040518060400160405280600981526020017f576174657273707574000000000000000000000000000000000000000000000081525081526020016040518060400160405280600781526020017f4772616e6164650000000000000000000000000000000000000000000000000081525081526020016040518060400160405280600581526020017f506f77657200000000000000000000000000000000000000000000000000000081525081526020016040518060400160405280600781526020017f4b696e657469630000000000000000000000000000000000000000000000000081525081526020016040518060400160405280600781526020017f4d6574726f69640000000000000000000000000000000000000000000000000081525081526020016040518060400160405280600681526020017f42616e616e61000000000000000000000000000000000000000000000000000081525081526020016040518060400160405280600481526020017f4b69776900000000000000000000000000000000000000000000000000000000815250815250600c9060106200087d929190620010c7565b506040518061022001604052806040518060400160405280600981526020017f416e68696c61746f72000000000000000000000000000000000000000000000081525081526020016040518060400160405280600981526020017f44657374726f796572000000000000000000000000000000000000000000000081525081526020016040518060400160405280600981526020017f436f6e717565726f72000000000000000000000000000000000000000000000081525081526020016040518060400160405280600881526020017f537061676865746900000000000000000000000000000000000000000000000081525081526020016040518060400160405280600681526020017f506972617465000000000000000000000000000000000000000000000000000081525081526020016040518060400160405280600581526020017f536577657200000000000000000000000000000000000000000000000000000081525081526020016040518060400160405280600781526020017f4d756e64616e650000000000000000000000000000000000000000000000000081525081526020016040518060400160405280600381526020017f4d6164000000000000000000000000000000000000000000000000000000000081525081526020016040518060400160405280600381526020017f4d6178000000000000000000000000000000000000000000000000000000000081525081526020016040518060400160405280600481526020017f527573740000000000000000000000000000000000000000000000000000000081525081526020016040518060400160405280600581526020017f547275634b00000000000000000000000000000000000000000000000000000081525081526020016040518060400160405280600481526020017f487567650000000000000000000000000000000000000000000000000000000081525081526020016040518060400160405280600981526020017f426174616c6c696f6e000000000000000000000000000000000000000000000081525081526020016040518060400160405280600481526020017f44756e650000000000000000000000000000000000000000000000000000000081525081526020016040518060400160405280600681526020017f53656c646f6e000000000000000000000000000000000000000000000000000081525081526020016040518060400160405280600581526020017f476f6c616d00000000000000000000000000000000000000000000000000000081525081526020016040518060400160405280600b81526020017f41726973746f74656c6573000000000000000000000000000000000000000000815250815250600d90601162000c859291906200112e565b506040518060c001604052806040518060400160405280600381526020017f726564000000000000000000000000000000000000000000000000000000000081525081526020016040518060400160405280600781526020017f233038433241380000000000000000000000000000000000000000000000000081525081526020016040518060400160405280600581526020017f626c61636b00000000000000000000000000000000000000000000000000000081525081526020016040518060400160405280600681526020017f79656c6c6f77000000000000000000000000000000000000000000000000000081525081526020016040518060400160405280600481526020017f626c75650000000000000000000000000000000000000000000000000000000081525081526020016040518060400160405280600581526020017f677265656e000000000000000000000000000000000000000000000000000000815250815250600e90600662000e0392919062001195565b5034801562000e1157600080fd5b506040518060400160405280600981526020017f5371756172654e465400000000000000000000000000000000000000000000008152506040518060400160405280600681526020017f5351554152450000000000000000000000000000000000000000000000000000815250816000908051906020019062000e9692919062000fcf565b50806001908051906020019062000eaf92919062000fcf565b50505062000efd6040518060400160405280601e81526020017f54686973206973206d79204e465420636f6e74726163742e2057686f6121000081525062000f0360201b620014411760201c565b620013b6565b62000fa38160405160240162000f1a9190620012ca565b6040516020818303038152906040527f41304fac000000000000000000000000000000000000000000000000000000007bffffffffffffffffffffffffffffffffffffffffffffffffffffffff19166020820180517bffffffffffffffffffffffffffffffffffffffffffffffffffffffff838183161783525050505062000fa660201b60201c565b50565b60008151905060006a636f6e736f6c652e6c6f679050602083016000808483855afa5050505050565b82805462000fdd9062001340565b90600052602060002090601f0160209004810192826200100157600085556200104d565b82601f106200101c57805160ff19168380011785556200104d565b828001600101855582156200104d579182015b828111156200104c5782518255916020019190600101906200102f565b5b5090506200105c9190620011fc565b5090565b828054828255906000526020600020908101928215620010b4579160200282015b82811115620010b3578251829080519060200190620010a292919062000fcf565b509160200191906001019062001081565b5b509050620010c391906200121b565b5090565b8280548282559060005260206000209081019282156200111b579160200282015b828111156200111a5782518290805190602001906200110992919062000fcf565b5091602001919060010190620010e8565b5b5090506200112a91906200121b565b5090565b82805482825590600052602060002090810192821562001182579160200282015b82811115620011815782518290805190602001906200117092919062000fcf565b50916020019190600101906200114f565b5b5090506200119191906200121b565b5090565b828054828255906000526020600020908101928215620011e9579160200282015b82811115620011e8578251829080519060200190620011d792919062000fcf565b5091602001919060010190620011b6565b5b509050620011f891906200121b565b5090565b5b8082111562001217576000816000905550600101620011fd565b5090565b5b808211156200123f576000818162001235919062001243565b506001016200121c565b5090565b508054620012519062001340565b6000825580601f1062001265575062001286565b601f016020900490600052602060002090810190620012859190620011fc565b5b50565b60006200129682620012ee565b620012a28185620012f9565b9350620012b48185602086016200130a565b620012bf81620013a5565b840191505092915050565b60006020820190508181036000830152620012e6818462001289565b905092915050565b600081519050919050565b600082825260208201905092915050565b60005b838110156200132a5780820151818401526020810190506200130d565b838111156200133a576000848401525b50505050565b600060028204905060018216806200135957607f821691505b6020821081141562001370576200136f62001376565b5b50919050565b7f4e487b7100000000000000000000000000000000000000000000000000000000600052602260045260246000fd5b6000601f19601f8301169050919050565b613cdf80620013c66000396000f3fe608060405234801561001057600080fd5b50600436106101215760003560e01c806370a08231116100ad578063b88d4fde11610071578063b88d4fde1461032c578063c575757a14610348578063c87b56dd14610378578063de9d132f146103a8578063e985e9c5146103b257610121565b806370a082311461028857806395d89b41146102b8578063986f5be2146102d6578063a22cb465146102e0578063b187301f146102fc57610121565b806323b872dd116100f457806323b872dd146101c05780632de38d68146101dc57806342842e0e1461020c578063514dc8c6146102285780636352211e1461025857610121565b806301ffc9a71461012657806306fdde0314610156578063081812fc14610174578063095ea7b3146101a4575b600080fd5b610140600480360381019061013b9190612773565b6103e2565b60405161014d91906134cc565b60405180910390f35b61015e6104c4565b60405161016b91906134e7565b60405180910390f35b61018e600480360381019061018991906127c5565b610556565b60405161019b919061343c565b60405180910390f35b6101be60048036038101906101b99190612737565b6105db565b005b6101da60048036038101906101d59190612631565b6106f3565b005b6101f660048036038101906101f191906127c5565b610753565b60405161020391906134e7565b60405180910390f35b61022660048036038101906102219190612631565b610871565b005b610242600480360381019061023d91906127c5565b610891565b60405161024f91906134e7565b60405180910390f35b610272600480360381019061026d91906127c5565b6109af565b60405161027f919061343c565b60405180910390f35b6102a2600480360381019061029d91906125cc565b610a61565b6040516102af9190613785565b60405180910390f35b6102c0610b19565b6040516102cd91906134e7565b60405180910390f35b6102de610bab565b005b6102fa60048036038101906102f591906126fb565b610c33565b005b610316600480360381019061031191906127c5565b610db4565b60405161032391906134e7565b60405180910390f35b61034660048036038101906103419190612680565b610ed2565b005b610362600480360381019061035d91906127c5565b610f34565b60405161036f91906134e7565b60405180910390f35b610392600480360381019061038d91906127c5565b611052565b60405161039f91906134e7565b60405180910390f35b6103b06111a4565b005b6103cc60048036038101906103c791906125f5565b6113ad565b6040516103d991906134cc565b60405180910390f35b60007f80ac58cd000000000000000000000000000000000000000000000000000000007bffffffffffffffffffffffffffffffffffffffffffffffffffffffff1916827bffffffffffffffffffffffffffffffffffffffffffffffffffffffff191614806104ad57507f5b5e139f000000000000000000000000000000000000000000000000000000007bffffffffffffffffffffffffffffffffffffffffffffffffffffffff1916827bffffffffffffffffffffffffffffffffffffffffffffffffffffffff1916145b806104bd57506104bc826114da565b5b9050919050565b6060600080546104d390613a4d565b80601f01602080910402602001604051908101604052809291908181526020018280546104ff90613a4d565b801561054c5780601f106105215761010080835404028352916020019161054c565b820191906000526020600020905b81548152906001019060200180831161052f57829003601f168201915b5050505050905090565b600061056182611544565b6105a0576040517f08c379a0000000000000000000000000000000000000000000000000000000008152600401610597906136e5565b60405180910390fd5b6004600083815260200190815260200160002060009054906101000a900473ffffffffffffffffffffffffffffffffffffffff169050919050565b60006105e6826109af565b90508073ffffffffffffffffffffffffffffffffffffffff168373ffffffffffffffffffffffffffffffffffffffff161415610657576040517f08c379a000000000000000000000000000000000000000000000000000000000815260040161064e90613745565b60405180910390fd5b8073ffffffffffffffffffffffffffffffffffffffff166106766115b0565b73ffffffffffffffffffffffffffffffffffffffff1614806106a557506106a48161069f6115b0565b6113ad565b5b6106e4576040517f08c379a00000000000000000000000000000000000000000000000000000000081526004016106db90613625565b60405180910390fd5b6106ee83836115b8565b505050565b6107046106fe6115b0565b82611671565b610743576040517f08c379a000000000000000000000000000000000000000000000000000000000815260040161073a90613765565b60405180910390fd5b61074e83838361174f565b505050565b60606000610787610763846119ab565b6040516020016107739190613370565b604051602081830303815290604052611b58565b9050600b805490508161079a9190613ac8565b9050600b81815481106107d6577f4e487b7100000000000000000000000000000000000000000000000000000000600052603260045260246000fd5b9060005260206000200180546107eb90613a4d565b80601f016020809104026020016040519081016040528092919081815260200182805461081790613a4d565b80156108645780601f1061083957610100808354040283529160200191610864565b820191906000526020600020905b81548152906001019060200180831161084757829003601f168201915b5050505050915050919050565b61088c83838360405180602001604052806000815250610ed2565b505050565b606060006108c56108a1846119ab565b6040516020016108b1919061334e565b604051602081830303815290604052611b58565b9050600e80549050816108d89190613ac8565b9050600e8181548110610914577f4e487b7100000000000000000000000000000000000000000000000000000000600052603260045260246000fd5b90600052602060002001805461092990613a4d565b80601f016020809104026020016040519081016040528092919081815260200182805461095590613a4d565b80156109a25780601f10610977576101008083540402835291602001916109a2565b820191906000526020600020905b81548152906001019060200180831161098557829003601f168201915b5050505050915050919050565b6000806002600084815260200190815260200160002060009054906101000a900473ffffffffffffffffffffffffffffffffffffffff169050600073ffffffffffffffffffffffffffffffffffffffff168173ffffffffffffffffffffffffffffffffffffffff161415610a58576040517f08c379a0000000000000000000000000000000000000000000000000000000008152600401610a4f90613665565b60405180910390fd5b80915050919050565b60008073ffffffffffffffffffffffffffffffffffffffff168273ffffffffffffffffffffffffffffffffffffffff161415610ad2576040517f08c379a0000000000000000000000000000000000000000000000000000000008152600401610ac990613645565b60405180910390fd5b600360008373ffffffffffffffffffffffffffffffffffffffff1673ffffffffffffffffffffffffffffffffffffffff168152602001908152602001600020549050919050565b606060018054610b2890613a4d565b80601f0160208091040260200160405190810160405280929190818152602001828054610b5490613a4d565b8015610ba15780601f10610b7657610100808354040283529160200191610ba1565b820191906000526020600020905b815481529060010190602001808311610b8457829003601f168201915b5050505050905090565b610bed604051806060016040528060228152602001613c4860229139610bd16007611b8b565b610bdb6007611b8b565b600854610be89190613963565b611b99565b7fb54217fd1c3fa3709862f743e28995f129b680e5f7e025d88341b0742062b3fc610c186007611b8b565b600854604051610c299291906137a0565b60405180910390a1565b610c3b6115b0565b73ffffffffffffffffffffffffffffffffffffffff168273ffffffffffffffffffffffffffffffffffffffff161415610ca9576040517f08c379a0000000000000000000000000000000000000000000000000000000008152600401610ca0906135e5565b60405180910390fd5b8060056000610cb66115b0565b73ffffffffffffffffffffffffffffffffffffffff1673ffffffffffffffffffffffffffffffffffffffff16815260200190815260200160002060008473ffffffffffffffffffffffffffffffffffffffff1673ffffffffffffffffffffffffffffffffffffffff16815260200190815260200160002060006101000a81548160ff0219169083151502179055508173ffffffffffffffffffffffffffffffffffffffff16610d636115b0565b73ffffffffffffffffffffffffffffffffffffffff167f17307eab39ab6107e8899845ad3d59bd9653f200f220920489ca2b5937696c3183604051610da891906134cc565b60405180910390a35050565b60606000610de8610dc4846119ab565b604051602001610dd4919061341a565b604051602081830303815290604052611b58565b9050600c8054905081610dfb9190613ac8565b9050600c8181548110610e37577f4e487b7100000000000000000000000000000000000000000000000000000000600052603260045260246000fd5b906000526020600020018054610e4c90613a4d565b80601f0160208091040260200160405190810160405280929190818152602001828054610e7890613a4d565b8015610ec55780601f10610e9a57610100808354040283529160200191610ec5565b820191906000526020600020905b815481529060010190602001808311610ea857829003601f168201915b5050505050915050919050565b610ee3610edd6115b0565b83611671565b610f22576040517f08c379a0000000000000000000000000000000000000000000000000000000008152600401610f1990613765565b60405180910390fd5b610f2e84848484611c38565b50505050565b60606000610f68610f44846119ab565b604051602001610f54919061332c565b604051602081830303815290604052611b58565b9050600d8054905081610f7b9190613ac8565b9050600d8181548110610fb7577f4e487b7100000000000000000000000000000000000000000000000000000000600052603260045260246000fd5b906000526020600020018054610fcc90613a4d565b80601f0160208091040260200160405190810160405280929190818152602001828054610ff890613a4d565b80156110455780601f1061101a57610100808354040283529160200191611045565b820191906000526020600020905b81548152906001019060200180831161102857829003601f168201915b5050505050915050919050565b606061105d82611544565b61109c576040517f08c379a0000000000000000000000000000000000000000000000000000000008152600401611093906136c5565b60405180910390fd5b60006006600084815260200190815260200160002080546110bc90613a4d565b80601f01602080910402602001604051908101604052809291908181526020018280546110e890613a4d565b80156111355780601f1061110a57610100808354040283529160200191611135565b820191906000526020600020905b81548152906001019060200180831161111857829003601f168201915b505050505090506000611146611c94565b905060008151141561115c57819250505061119f565b60008251111561119157808260405160200161117992919061328e565b6040516020818303038152906040529250505061119f565b61119a84611cab565b925050505b919050565b60006111b06007611b8b565b90506008548111156111c157600080fd5b60006111cc82610753565b905060006111d983610db4565b905060006111e684610f34565b905060008383836040516020016111ff939291906132b2565b6040516020818303038152906040529050600061121b86610891565b90506000600982600a8560405160200161123894939291906132e3565b6040516020818303038152906040529050600061127d8461125884611d52565b604051602001611269929190613392565b604051602081830303815290604052611d52565b905060008160405160200161129291906133f8565b60405160208183030381529060405290506112e16040518060400160405280601481526020017f0a2d2d2d2d2d2d2d2d2d2d2d2d2d2d2d2d2d2d2d000000000000000000000000815250611441565b6112ea81611441565b6113286040518060400160405280601481526020017f2d2d2d2d2d2d2d2d2d2d2d2d2d2d2d2d2d2d2d0a000000000000000000000000815250611441565b611332338a611f10565b61133c8982611f2e565b61135f604051806060016040528060258152602001613c23602591398a33611fa2565b6113696007612041565b7febb98688741ffa4c7589bf325de30cf7becb63de567842e1ccdb6cb949fdc82c338a60405161139a9291906134a3565b60405180910390a1505050505050505050565b6000600560008473ffffffffffffffffffffffffffffffffffffffff1673ffffffffffffffffffffffffffffffffffffffff16815260200190815260200160002060008373ffffffffffffffffffffffffffffffffffffffff1673ffffffffffffffffffffffffffffffffffffffff16815260200190815260200160002060009054906101000a900460ff16905092915050565b6114d78160405160240161145591906134e7565b6040516020818303038152906040527f41304fac000000000000000000000000000000000000000000000000000000007bffffffffffffffffffffffffffffffffffffffffffffffffffffffff19166020820180517bffffffffffffffffffffffffffffffffffffffffffffffffffffffff8381831617835250505050612057565b50565b60007f01ffc9a7000000000000000000000000000000000000000000000000000000007bffffffffffffffffffffffffffffffffffffffffffffffffffffffff1916827bffffffffffffffffffffffffffffffffffffffffffffffffffffffff1916149050919050565b60008073ffffffffffffffffffffffffffffffffffffffff166002600084815260200190815260200160002060009054906101000a900473ffffffffffffffffffffffffffffffffffffffff1673ffffffffffffffffffffffffffffffffffffffff1614159050919050565b600033905090565b816004600083815260200190815260200160002060006101000a81548173ffffffffffffffffffffffffffffffffffffffff021916908373ffffffffffffffffffffffffffffffffffffffff160217905550808273ffffffffffffffffffffffffffffffffffffffff1661162b836109af565b73ffffffffffffffffffffffffffffffffffffffff167f8c5be1e5ebec7d5bd14f71427d1e84f3dd0314c0f7b2291e5b200ac8c7c3b92560405160405180910390a45050565b600061167c82611544565b6116bb576040517f08c379a00000000000000000000000000000000000000000000000000000000081526004016116b290613605565b60405180910390fd5b60006116c6836109af565b90508073ffffffffffffffffffffffffffffffffffffffff168473ffffffffffffffffffffffffffffffffffffffff16148061173557508373ffffffffffffffffffffffffffffffffffffffff1661171d84610556565b73ffffffffffffffffffffffffffffffffffffffff16145b80611746575061174581856113ad565b5b91505092915050565b8273ffffffffffffffffffffffffffffffffffffffff1661176f826109af565b73ffffffffffffffffffffffffffffffffffffffff16146117c5576040517f08c379a00000000000000000000000000000000000000000000000000000000081526004016117bc90613705565b60405180910390fd5b600073ffffffffffffffffffffffffffffffffffffffff168273ffffffffffffffffffffffffffffffffffffffff161415611835576040517f08c379a000000000000000000000000000000000000000000000000000000000815260040161182c906135c5565b60405180910390fd5b611840838383612080565b61184b6000826115b8565b6001600360008573ffffffffffffffffffffffffffffffffffffffff1673ffffffffffffffffffffffffffffffffffffffff168152602001908152602001600020600082825461189b9190613963565b925050819055506001600360008473ffffffffffffffffffffffffffffffffffffffff1673ffffffffffffffffffffffffffffffffffffffff16815260200190815260200160002060008282546118f29190613882565b92505081905550816002600083815260200190815260200160002060006101000a81548173ffffffffffffffffffffffffffffffffffffffff021916908373ffffffffffffffffffffffffffffffffffffffff160217905550808273ffffffffffffffffffffffffffffffffffffffff168473ffffffffffffffffffffffffffffffffffffffff167fddf252ad1be2c89b69c2b068fc378daa952ba7f163c4a11628f55a4df523b3ef60405160405180910390a4505050565b606060008214156119f3576040518060400160405280600181526020017f30000000000000000000000000000000000000000000000000000000000000008152509050611b53565b600082905060005b60008214611a25578080611a0e90613a7f565b915050600a82611a1e91906138d8565b91506119fb565b60008167ffffffffffffffff811115611a67577f4e487b7100000000000000000000000000000000000000000000000000000000600052604160045260246000fd5b6040519080825280601f01601f191660200182016040528015611a995781602001600182028036833780820191505090505b5090505b60008514611b4c57600182611ab29190613963565b9150600a85611ac19190613ac8565b6030611acd9190613882565b60f81b818381518110611b09577f4e487b7100000000000000000000000000000000000000000000000000000000600052603260045260246000fd5b60200101907effffffffffffffffffffffffffffffffffffffffffffffffffffffffffffff1916908160001a905350600a85611b4591906138d8565b9450611a9d565b8093505050505b919050565b600081604051602001611b6b9190613277565b6040516020818303038152906040528051906020012060001c9050919050565b600081600001549050919050565b611c33838383604051602401611bb193929190613547565b6040516020818303038152906040527f969cdd03000000000000000000000000000000000000000000000000000000007bffffffffffffffffffffffffffffffffffffffffffffffffffffffff19166020820180517bffffffffffffffffffffffffffffffffffffffffffffffffffffffff8381831617835250505050612057565b505050565b611c4384848461174f565b611c4f84848484612085565b611c8e576040517f08c379a0000000000000000000000000000000000000000000000000000000008152600401611c8590613585565b60405180910390fd5b50505050565b606060405180602001604052806000815250905090565b6060611cb682611544565b611cf5576040517f08c379a0000000000000000000000000000000000000000000000000000000008152600401611cec90613725565b60405180910390fd5b6000611cff611c94565b90506000815111611d1f5760405180602001604052806000815250611d4a565b80611d29846119ab565b604051602001611d3a92919061328e565b6040516020818303038152906040525b915050919050565b60606000825190506000811415611d7b5760405180602001604052806000815250915050611f0b565b60006003600283611d8c9190613882565b611d9691906138d8565b6004611da29190613909565b90506000602082611db39190613882565b67ffffffffffffffff811115611df2577f4e487b7100000000000000000000000000000000000000000000000000000000600052604160045260246000fd5b6040519080825280601f01601f191660200182016040528015611e245781602001600182028036833780820191505090505b5090506000604051806060016040528060408152602001613c6a604091399050600181016020830160005b86811015611ec85760038101905062ffffff818a015116603f8160121c168401518060081b905060ff603f83600c1c1686015116810190508060081b905060ff603f8360061c1686015116810190508060081b905060ff603f831686015116810190508060e01b90508084526004840193505050611e4f565b506003860660018114611ee25760028114611ef257611efd565b613d3d60f01b6002830352611efd565b603d60f81b60018303525b508484525050819450505050505b919050565b611f2a82826040518060200160405280600081525061221c565b5050565b611f3782611544565b611f76576040517f08c379a0000000000000000000000000000000000000000000000000000000008152600401611f6d90613685565b60405180910390fd5b80600660008481526020019081526020016000209080519060200190611f9d929190612458565b505050565b61203c838383604051602401611fba93929190613509565b6040516020818303038152906040527fe3849f79000000000000000000000000000000000000000000000000000000007bffffffffffffffffffffffffffffffffffffffffffffffffffffffff19166020820180517bffffffffffffffffffffffffffffffffffffffffffffffffffffffff8381831617835250505050612057565b505050565b6001816000016000828254019250508190555050565b60008151905060006a636f6e736f6c652e6c6f679050602083016000808483855afa5050505050565b505050565b60006120a68473ffffffffffffffffffffffffffffffffffffffff16612277565b1561220f578373ffffffffffffffffffffffffffffffffffffffff1663150b7a026120cf6115b0565b8786866040518563ffffffff1660e01b81526004016120f19493929190613457565b602060405180830381600087803b15801561210b57600080fd5b505af192505050801561213c57506040513d601f19601f82011682018060405250810190612139919061279c565b60015b6121bf573d806000811461216c576040519150601f19603f3d011682016040523d82523d6000602084013e612171565b606091505b506000815114156121b7576040517f08c379a00000000000000000000000000000000000000000000000000000000081526004016121ae90613585565b60405180910390fd5b805181602001fd5b63150b7a0260e01b7bffffffffffffffffffffffffffffffffffffffffffffffffffffffff1916817bffffffffffffffffffffffffffffffffffffffffffffffffffffffff191614915050612214565b600190505b949350505050565b612226838361228a565b6122336000848484612085565b612272576040517f08c379a000000000000000000000000000000000000000000000000000000000815260040161226990613585565b60405180910390fd5b505050565b600080823b905060008111915050919050565b600073ffffffffffffffffffffffffffffffffffffffff168273ffffffffffffffffffffffffffffffffffffffff1614156122fa576040517f08c379a00000000000000000000000000000000000000000000000000000000081526004016122f1906136a5565b60405180910390fd5b61230381611544565b15612343576040517f08c379a000000000000000000000000000000000000000000000000000000000815260040161233a906135a5565b60405180910390fd5b61234f60008383612080565b6001600360008473ffffffffffffffffffffffffffffffffffffffff1673ffffffffffffffffffffffffffffffffffffffff168152602001908152602001600020600082825461239f9190613882565b92505081905550816002600083815260200190815260200160002060006101000a81548173ffffffffffffffffffffffffffffffffffffffff021916908373ffffffffffffffffffffffffffffffffffffffff160217905550808273ffffffffffffffffffffffffffffffffffffffff16600073ffffffffffffffffffffffffffffffffffffffff167fddf252ad1be2c89b69c2b068fc378daa952ba7f163c4a11628f55a4df523b3ef60405160405180910390a45050565b82805461246490613a4d565b90600052602060002090601f01602090048101928261248657600085556124cd565b82601f1061249f57805160ff19168380011785556124cd565b828001600101855582156124cd579182015b828111156124cc5782518255916020019190600101906124b1565b5b5090506124da91906124de565b5090565b5b808211156124f75760008160009055506001016124df565b5090565b600061250e612509846137fa565b6137c9565b90508281526020810184848401111561252657600080fd5b612531848285613a0b565b509392505050565b60008135905061254881613bc6565b92915050565b60008135905061255d81613bdd565b92915050565b60008135905061257281613bf4565b92915050565b60008151905061258781613bf4565b92915050565b600082601f83011261259e57600080fd5b81356125ae8482602086016124fb565b91505092915050565b6000813590506125c681613c0b565b92915050565b6000602082840312156125de57600080fd5b60006125ec84828501612539565b91505092915050565b6000806040838503121561260857600080fd5b600061261685828601612539565b925050602061262785828601612539565b9150509250929050565b60008060006060848603121561264657600080fd5b600061265486828701612539565b935050602061266586828701612539565b9250506040612676868287016125b7565b9150509250925092565b6000806000806080858703121561269657600080fd5b60006126a487828801612539565b94505060206126b587828801612539565b93505060406126c6878288016125b7565b925050606085013567ffffffffffffffff8111156126e357600080fd5b6126ef8782880161258d565b91505092959194509250565b6000806040838503121561270e57600080fd5b600061271c85828601612539565b925050602061272d8582860161254e565b9150509250929050565b6000806040838503121561274a57600080fd5b600061275885828601612539565b9250506020612769858286016125b7565b9150509250929050565b60006020828403121561278557600080fd5b600061279384828501612563565b91505092915050565b6000602082840312156127ae57600080fd5b60006127bc84828501612578565b91505092915050565b6000602082840312156127d757600080fd5b60006127e5848285016125b7565b91505092915050565b6127f781613997565b82525050565b612806816139a9565b82525050565b60006128178261383f565b6128218185613855565b9350612831818560208601613a1a565b61283a81613bb5565b840191505092915050565b60006128508261384a565b61285a8185613866565b935061286a818560208601613a1a565b61287381613bb5565b840191505092915050565b60006128898261384a565b6128938185613877565b93506128a3818560208601613a1a565b80840191505092915050565b600081546128bc81613a4d565b6128c68186613877565b945060018216600081146128e157600181146128f257612925565b60ff19831686528186019350612925565b6128fb8561382a565b60005b8381101561291d578154818901526001820191506020810190506128fe565b838801955050505b50505092915050565b600061293b603283613866565b91507f4552433732313a207472616e7366657220746f206e6f6e20455243373231526560008301527f63656976657220696d706c656d656e74657200000000000000000000000000006020830152604082019050919050565b60006129a1600283613877565b91507f222c0000000000000000000000000000000000000000000000000000000000006000830152600282019050919050565b60006129e1601c83613866565b91507f4552433732313a20746f6b656e20616c7265616479206d696e746564000000006000830152602082019050919050565b6000612a21603b83613877565b91507f226465736372697074696f6e223a20224120686967686c79206163636c61696d60008301527f656420636f6c6c656374696f6e206f6620737175617265732e222c00000000006020830152603b82019050919050565b6000612a87602483613866565b91507f4552433732313a207472616e7366657220746f20746865207a65726f2061646460008301527f72657373000000000000000000000000000000000000000000000000000000006020830152604082019050919050565b6000612aed601983613866565b91507f4552433732313a20617070726f766520746f2063616c6c6572000000000000006000830152602082019050919050565b6000612b2d601183613877565b91507f52696e6f6365726f6e746520537563696f0000000000000000000000000000006000830152601182019050919050565b6000612b6d602c83613866565b91507f4552433732313a206f70657261746f7220717565727920666f72206e6f6e657860008301527f697374656e7420746f6b656e00000000000000000000000000000000000000006020830152604082019050919050565b6000612bd3600683613877565b91507f46756363696100000000000000000000000000000000000000000000000000006000830152600682019050919050565b6000612c13600d83613877565b91507f3c2f746578743e3c2f7376673e000000000000000000000000000000000000006000830152600d82019050919050565b6000612c53603883613866565b91507f4552433732313a20617070726f76652063616c6c6572206973206e6f74206f7760008301527f6e6572206e6f7220617070726f76656420666f7220616c6c00000000000000006020830152604082019050919050565b6000612cb9600183613877565b91507f22000000000000000000000000000000000000000000000000000000000000006000830152600182019050919050565b6000612cf9602a83613866565b91507f4552433732313a2062616c616e636520717565727920666f7220746865207a6560008301527f726f2061646472657373000000000000000000000000000000000000000000006020830152604082019050919050565b6000612d5f602983613866565b91507f4552433732313a206f776e657220717565727920666f72206e6f6e657869737460008301527f656e7420746f6b656e00000000000000000000000000000000000000000000006020830152604082019050919050565b6000612dc5602e83613866565b91507f45524337323155524953746f726167653a2055524920736574206f66206e6f6e60008301527f6578697374656e7420746f6b656e0000000000000000000000000000000000006020830152604082019050919050565b6000612e2b602483613877565b91507f22696d616765223a2022646174613a696d6167652f7376672b786d6c3b62617360008301527f6536342c000000000000000000000000000000000000000000000000000000006020830152602482019050919050565b6000612e91600c83613877565b91507f4261696c6f7465726170696100000000000000000000000000000000000000006000830152600c82019050919050565b6000612ed1602083613866565b91507f4552433732313a206d696e7420746f20746865207a65726f20616464726573736000830152602082019050919050565b6000612f11600183613877565b91507f7d000000000000000000000000000000000000000000000000000000000000006000830152600182019050919050565b6000612f51603183613866565b91507f45524337323155524953746f726167653a2055524920717565727920666f722060008301527f6e6f6e6578697374656e7420746f6b656e0000000000000000000000000000006020830152604082019050919050565b6000612fb7602c83613866565b91507f4552433732313a20617070726f76656420717565727920666f72206e6f6e657860008301527f697374656e7420746f6b656e00000000000000000000000000000000000000006020830152604082019050919050565b600061301d602983613866565b91507f4552433732313a207472616e73666572206f6620746f6b656e2074686174206960008301527f73206e6f74206f776e00000000000000000000000000000000000000000000006020830152604082019050919050565b6000613083602f83613866565b91507f4552433732314d657461646174613a2055524920717565727920666f72206e6f60008301527f6e6578697374656e7420746f6b656e00000000000000000000000000000000006020830152604082019050919050565b60006130e9600a83613877565b91507f7b226e616d65223a2022000000000000000000000000000000000000000000006000830152600a82019050919050565b6000613129602183613866565b91507f4552433732313a20617070726f76616c20746f2063757272656e74206f776e6560008301527f72000000000000000000000000000000000000000000000000000000000000006020830152604082019050919050565b600061318f601d83613877565b91507f646174613a6170706c69636174696f6e2f6a736f6e3b6261736536342c0000006000830152601d82019050919050565b60006131cf603183613866565b91507f4552433732313a207472616e736665722063616c6c6572206973206e6f74206f60008301527f776e6572206e6f7220617070726f7665640000000000000000000000000000006020830152604082019050919050565b6000613235600f83613877565b91507f52657075626c69636120436865636100000000000000000000000000000000006000830152600f82019050919050565b61327181613a01565b82525050565b6000613283828461287e565b915081905092915050565b600061329a828561287e565b91506132a6828461287e565b91508190509392505050565b60006132be828661287e565b91506132ca828561287e565b91506132d6828461287e565b9150819050949350505050565b60006132ef82876128af565b91506132fb828661287e565b915061330782856128af565b9150613313828461287e565b915061331e82612c06565b915081905095945050505050565b600061333782612b20565b9150613343828461287e565b915081905092915050565b600061335982612bc6565b9150613365828461287e565b915081905092915050565b600061337b82612e84565b9150613387828461287e565b915081905092915050565b600061339d826130dc565b91506133a9828561287e565b91506133b482612994565b91506133bf82612a14565b91506133ca82612e1e565b91506133d6828461287e565b91506133e182612cac565b91506133ec82612f04565b91508190509392505050565b600061340382613182565b915061340f828461287e565b915081905092915050565b600061342582613228565b9150613431828461287e565b915081905092915050565b600060208201905061345160008301846127ee565b92915050565b600060808201905061346c60008301876127ee565b61347960208301866127ee565b6134866040830185613268565b8181036060830152613498818461280c565b905095945050505050565b60006040820190506134b860008301856127ee565b6134c56020830184613268565b9392505050565b60006020820190506134e160008301846127fd565b92915050565b600060208201905081810360008301526135018184612845565b905092915050565b600060608201905081810360008301526135238186612845565b90506135326020830185613268565b61353f60408301846127ee565b949350505050565b600060608201905081810360008301526135618186612845565b90506135706020830185613268565b61357d6040830184613268565b949350505050565b6000602082019050818103600083015261359e8161292e565b9050919050565b600060208201905081810360008301526135be816129d4565b9050919050565b600060208201905081810360008301526135de81612a7a565b9050919050565b600060208201905081810360008301526135fe81612ae0565b9050919050565b6000602082019050818103600083015261361e81612b60565b9050919050565b6000602082019050818103600083015261363e81612c46565b9050919050565b6000602082019050818103600083015261365e81612cec565b9050919050565b6000602082019050818103600083015261367e81612d52565b9050919050565b6000602082019050818103600083015261369e81612db8565b9050919050565b600060208201905081810360008301526136be81612ec4565b9050919050565b600060208201905081810360008301526136de81612f44565b9050919050565b600060208201905081810360008301526136fe81612faa565b9050919050565b6000602082019050818103600083015261371e81613010565b9050919050565b6000602082019050818103600083015261373e81613076565b9050919050565b6000602082019050818103600083015261375e8161311c565b9050919050565b6000602082019050818103600083015261377e816131c2565b9050919050565b600060208201905061379a6000830184613268565b92915050565b60006040820190506137b56000830185613268565b6137c26020830184613268565b9392505050565b6000604051905081810181811067ffffffffffffffff821117156137f0576137ef613b86565b5b8060405250919050565b600067ffffffffffffffff82111561381557613814613b86565b5b601f19601f8301169050602081019050919050565b60008190508160005260206000209050919050565b600081519050919050565b600081519050919050565b600082825260208201905092915050565b600082825260208201905092915050565b600081905092915050565b600061388d82613a01565b915061389883613a01565b9250827fffffffffffffffffffffffffffffffffffffffffffffffffffffffffffffffff038211156138cd576138cc613af9565b5b828201905092915050565b60006138e382613a01565b91506138ee83613a01565b9250826138fe576138fd613b28565b5b828204905092915050565b600061391482613a01565b915061391f83613a01565b9250817fffffffffffffffffffffffffffffffffffffffffffffffffffffffffffffffff048311821515161561395857613957613af9565b5b828202905092915050565b600061396e82613a01565b915061397983613a01565b92508282101561398c5761398b613af9565b5b828203905092915050565b60006139a2826139e1565b9050919050565b60008115159050919050565b60007fffffffff0000000000000000000000000000000000000000000000000000000082169050919050565b600073ffffffffffffffffffffffffffffffffffffffff82169050919050565b6000819050919050565b82818337600083830152505050565b60005b83811015613a38578082015181840152602081019050613a1d565b83811115613a47576000848401525b50505050565b60006002820490506001821680613a6557607f821691505b60208210811415613a7957613a78613b57565b5b50919050565b6000613a8a82613a01565b91507fffffffffffffffffffffffffffffffffffffffffffffffffffffffffffffffff821415613abd57613abc613af9565b5b600182019050919050565b6000613ad382613a01565b9150613ade83613a01565b925082613aee57613aed613b28565b5b828206905092915050565b7f4e487b7100000000000000000000000000000000000000000000000000000000600052601160045260246000fd5b7f4e487b7100000000000000000000000000000000000000000000000000000000600052601260045260246000fd5b7f4e487b7100000000000000000000000000000000000000000000000000000000600052602260045260246000fd5b7f4e487b7100000000000000000000000000000000000000000000000000000000600052604160045260246000fd5b6000601f19601f8301169050919050565b613bcf81613997565b8114613bda57600080fd5b50565b613be6816139a9565b8114613bf157600080fd5b50565b613bfd816139b5565b8114613c0857600080fd5b50565b613c1481613a01565b8114613c1f57600080fd5b5056fe416e204e465420772f20494420257320686173206265656e206d696e74656420746f202573546f74616c204e465473206d696e7465642025732c2072656d61696e696e672025734142434445464748494a4b4c4d4e4f505152535455565758595a6162636465666768696a6b6c6d6e6f707172737475767778797a303132333435363738392b2fa2646970667358221220378b6d2189c2092307d51bc95f1feb1652153168976e09853e91b7705ceced6364736f6c634300080000333c73766720786d6c6e733d27687474703a2f2f7777772e77332e6f72672f323030302f73766727207072657365727665417370656374526174696f3d27784d696e594d696e206d656574272076696577426f783d273020302033353020333530273e3c7374796c653e2e62617365207b2066696c6c3a2077686974653b20666f6e742d66616d696c793a2073657269663b20666f6e742d73697a653a20323470783b207d3c2f7374796c653e3c726563742077696474683d273130302527206865696768743d2731303025272066696c6c3d27272f3e3c7465787420783d273530252720793d273530252720636c6173733d27626173652720646f6d696e616e742d626173656c696e653d276d6964646c652720746578742d616e63686f723d276d6964646c65273e",
  "linkReferences": {},
  "deployedLinkReferences": {}
}